{
  "_format": "hh-sol-artifact-1",
  "contractName": "GenericHandlerUpgradeable",
  "sourceName": "contracts/handlers/GenericHandlerUpgradeable.sol",
  "abi": [
    {
      "anonymous": false,
      "inputs": [
        {
          "indexed": true,
          "internalType": "uint8",
          "name": "destinationChainID",
          "type": "uint8"
        },
        {
          "indexed": true,
          "internalType": "bytes32",
          "name": "resourceID",
          "type": "bytes32"
        },
        {
          "indexed": true,
          "internalType": "uint64",
          "name": "depositNonce",
          "type": "uint64"
        },
        {
          "indexed": false,
          "internalType": "uint256",
          "name": "widgetID",
          "type": "uint256"
        }
      ],
      "name": "ReplayEvent",
      "type": "event"
    },
    {
      "anonymous": false,
      "inputs": [
        {
          "indexed": true,
          "internalType": "bytes32",
          "name": "role",
          "type": "bytes32"
        },
        {
          "indexed": true,
          "internalType": "bytes32",
          "name": "previousAdminRole",
          "type": "bytes32"
        },
        {
          "indexed": true,
          "internalType": "bytes32",
          "name": "newAdminRole",
          "type": "bytes32"
        }
      ],
      "name": "RoleAdminChanged",
      "type": "event"
    },
    {
      "anonymous": false,
      "inputs": [
        {
          "indexed": true,
          "internalType": "bytes32",
          "name": "role",
          "type": "bytes32"
        },
        {
          "indexed": true,
          "internalType": "address",
          "name": "account",
          "type": "address"
        },
        {
          "indexed": true,
          "internalType": "address",
          "name": "sender",
          "type": "address"
        }
      ],
      "name": "RoleGranted",
      "type": "event"
    },
    {
      "anonymous": false,
      "inputs": [
        {
          "indexed": true,
          "internalType": "bytes32",
          "name": "role",
          "type": "bytes32"
        },
        {
          "indexed": true,
          "internalType": "address",
          "name": "account",
          "type": "address"
        },
        {
          "indexed": true,
          "internalType": "address",
          "name": "sender",
          "type": "address"
        }
      ],
      "name": "RoleRevoked",
      "type": "event"
    },
    {
      "inputs": [],
      "name": "BRIDGE_ROLE",
      "outputs": [
        {
          "internalType": "bytes32",
          "name": "",
          "type": "bytes32"
        }
      ],
      "stateMutability": "view",
      "type": "function"
    },
    {
      "inputs": [],
      "name": "DEFAULT_ADMIN_ROLE",
      "outputs": [
        {
          "internalType": "bytes32",
          "name": "",
          "type": "bytes32"
        }
      ],
      "stateMutability": "view",
      "type": "function"
    },
    {
      "inputs": [],
      "name": "FEE_SETTER_ROLE",
      "outputs": [
        {
          "internalType": "bytes32",
          "name": "",
          "type": "bytes32"
        }
      ],
      "stateMutability": "view",
      "type": "function"
    },
    {
      "inputs": [
        {
          "components": [
            {
              "internalType": "address",
              "name": "_rSyncContract",
              "type": "address"
            },
            {
              "internalType": "uint8",
              "name": "_chainID",
              "type": "uint8"
            },
            {
              "internalType": "address",
              "name": "_linkedContract",
              "type": "address"
            }
          ],
          "internalType": "struct GenericHandlerUpgradeable.RouterLinker",
          "name": "linker",
          "type": "tuple"
        }
      ],
      "name": "MapContract",
      "outputs": [],
      "stateMutability": "nonpayable",
      "type": "function"
    },
    {
      "inputs": [
        {
          "components": [
            {
              "internalType": "address",
              "name": "_rSyncContract",
              "type": "address"
            },
            {
              "internalType": "uint8",
              "name": "_chainID",
              "type": "uint8"
            },
            {
              "internalType": "address",
              "name": "_linkedContract",
              "type": "address"
            }
          ],
          "internalType": "struct GenericHandlerUpgradeable.RouterLinker",
          "name": "linker",
          "type": "tuple"
        }
      ],
      "name": "UnMapContract",
      "outputs": [],
      "stateMutability": "nonpayable",
      "type": "function"
    },
    {
      "inputs": [],
      "name": "bridge",
      "outputs": [
        {
          "internalType": "contract iGBridge",
          "name": "",
          "type": "address"
        }
      ],
      "stateMutability": "view",
      "type": "function"
    },
    {
      "inputs": [
        {
          "internalType": "uint8",
          "name": "destinationChainID",
          "type": "uint8"
        },
        {
          "internalType": "address",
          "name": "feeTokenAddress",
          "type": "address"
        },
        {
          "internalType": "uint256",
          "name": "gasLimit",
          "type": "uint256"
        },
        {
          "internalType": "uint256",
          "name": "gasPrice",
          "type": "uint256"
        }
      ],
      "name": "calculateFees",
      "outputs": [
        {
          "internalType": "uint256",
          "name": "",
          "type": "uint256"
        }
      ],
      "stateMutability": "view",
      "type": "function"
    },
    {
      "inputs": [
        {
          "internalType": "bytes",
          "name": "_data",
          "type": "bytes"
        }
      ],
      "name": "executeProposal",
      "outputs": [
        {
          "internalType": "bool",
          "name": "",
          "type": "bool"
        }
      ],
      "stateMutability": "nonpayable",
      "type": "function"
    },
    {
      "inputs": [
        {
          "internalType": "uint8",
          "name": "_chainID",
          "type": "uint8"
        }
      ],
      "name": "fetchDefaultGas",
      "outputs": [
        {
          "internalType": "uint256",
          "name": "",
          "type": "uint256"
        }
      ],
      "stateMutability": "view",
      "type": "function"
    },
    {
      "inputs": [
        {
          "internalType": "uint8",
          "name": "_chainID",
          "type": "uint8"
        }
      ],
      "name": "fetchDefaultGasPrice",
      "outputs": [
        {
          "internalType": "uint256",
          "name": "",
          "type": "uint256"
        }
      ],
      "stateMutability": "view",
      "type": "function"
    },
    {
      "inputs": [
        {
          "internalType": "uint8",
          "name": "_ChainID",
          "type": "uint8"
        },
        {
          "internalType": "uint64",
          "name": "_nonce",
          "type": "uint64"
        }
      ],
      "name": "fetchDepositRecord",
      "outputs": [
        {
          "components": [
            {
              "internalType": "bytes32",
              "name": "_resourceID",
              "type": "bytes32"
            },
            {
              "internalType": "uint8",
              "name": "_srcChainID",
              "type": "uint8"
            },
            {
              "internalType": "uint8",
              "name": "_destChainID",
              "type": "uint8"
            },
            {
              "internalType": "uint64",
              "name": "_nonce",
              "type": "uint64"
            },
            {
              "internalType": "address",
              "name": "_srcAddress",
              "type": "address"
            },
            {
              "internalType": "address",
              "name": "_destAddress",
              "type": "address"
            },
            {
              "internalType": "bytes4",
              "name": "_selector",
              "type": "bytes4"
            },
            {
              "internalType": "bytes",
              "name": "data",
              "type": "bytes"
            },
            {
              "internalType": "bytes32",
              "name": "hash",
              "type": "bytes32"
            },
            {
              "internalType": "uint256",
              "name": "_gas",
              "type": "uint256"
            },
            {
              "internalType": "address",
              "name": "_feeToken",
              "type": "address"
            }
          ],
          "internalType": "struct GenericHandlerUpgradeable.DepositRecord",
          "name": "",
          "type": "tuple"
        }
      ],
      "stateMutability": "view",
      "type": "function"
    },
    {
      "inputs": [
        {
          "internalType": "uint8",
          "name": "_ChainID",
          "type": "uint8"
        },
        {
          "internalType": "uint64",
          "name": "_nonce",
          "type": "uint64"
        }
      ],
      "name": "fetchExecuteRecord",
      "outputs": [
        {
          "components": [
            {
              "internalType": "bool",
              "name": "isExecuted",
              "type": "bool"
            },
            {
              "internalType": "bool",
              "name": "_status",
              "type": "bool"
            },
            {
              "internalType": "bytes",
              "name": "_callback",
              "type": "bytes"
            }
          ],
          "internalType": "struct GenericHandlerUpgradeable.ExecuteRecord",
          "name": "",
          "type": "tuple"
        }
      ],
      "stateMutability": "view",
      "type": "function"
    },
    {
      "inputs": [],
      "name": "fetchFeeManager",
      "outputs": [
        {
          "internalType": "address",
          "name": "",
          "type": "address"
        }
      ],
      "stateMutability": "view",
      "type": "function"
    },
    {
      "inputs": [
        {
          "internalType": "uint8",
          "name": "_ChainID",
          "type": "uint8"
        },
        {
          "internalType": "uint64",
          "name": "_nonce",
          "type": "uint64"
        }
      ],
      "name": "fetchFeeRecord",
      "outputs": [
        {
          "components": [
            {
              "internalType": "uint8",
              "name": "_destChainID",
              "type": "uint8"
            },
            {
              "internalType": "uint64",
              "name": "_nonce",
              "type": "uint64"
            },
            {
              "internalType": "address",
              "name": "_feeToken",
              "type": "address"
            },
            {
              "internalType": "uint256",
              "name": "_gasLimit",
              "type": "uint256"
            },
            {
              "internalType": "uint256",
              "name": "_gasPrice",
              "type": "uint256"
            },
            {
              "internalType": "uint256",
              "name": "_feeAmount",
              "type": "uint256"
            }
          ],
          "internalType": "struct GenericHandlerUpgradeable.FeeRecord",
          "name": "",
          "type": "tuple"
        }
      ],
      "stateMutability": "view",
      "type": "function"
    },
    {
      "inputs": [],
      "name": "fetchResourceID",
      "outputs": [
        {
          "internalType": "bytes32",
          "name": "",
          "type": "bytes32"
        }
      ],
      "stateMutability": "view",
      "type": "function"
    },
    {
      "inputs": [],
      "name": "fetch_chainID",
      "outputs": [
        {
          "internalType": "uint8",
          "name": "",
          "type": "uint8"
        }
      ],
      "stateMutability": "view",
      "type": "function"
    },
    {
      "inputs": [
        {
          "internalType": "uint8",
          "name": "_destChainID",
          "type": "uint8"
        },
        {
          "internalType": "bytes4",
          "name": "_selector",
          "type": "bytes4"
        },
        {
          "internalType": "bytes",
          "name": "_data",
          "type": "bytes"
        },
        {
          "internalType": "uint256",
          "name": "_gasLimit",
          "type": "uint256"
        },
        {
          "internalType": "uint256",
          "name": "_gasPrice",
          "type": "uint256"
        },
        {
          "internalType": "address",
          "name": "_feeToken",
          "type": "address"
        }
      ],
      "name": "genericDeposit",
      "outputs": [],
      "stateMutability": "nonpayable",
      "type": "function"
    },
    {
      "inputs": [
        {
          "internalType": "bytes32",
          "name": "role",
          "type": "bytes32"
        }
      ],
      "name": "getRoleAdmin",
      "outputs": [
        {
          "internalType": "bytes32",
          "name": "",
          "type": "bytes32"
        }
      ],
      "stateMutability": "view",
      "type": "function"
    },
    {
      "inputs": [
        {
          "internalType": "bytes32",
          "name": "role",
          "type": "bytes32"
        },
        {
          "internalType": "address",
          "name": "account",
          "type": "address"
        }
      ],
      "name": "grantRole",
      "outputs": [],
      "stateMutability": "nonpayable",
      "type": "function"
    },
    {
      "inputs": [
        {
          "internalType": "bytes32",
          "name": "role",
          "type": "bytes32"
        },
        {
          "internalType": "address",
          "name": "account",
          "type": "address"
        }
      ],
      "name": "hasRole",
      "outputs": [
        {
          "internalType": "bool",
          "name": "",
          "type": "bool"
        }
      ],
      "stateMutability": "view",
      "type": "function"
    },
    {
      "inputs": [
        {
          "internalType": "address",
          "name": "_bridge",
          "type": "address"
        },
        {
          "internalType": "bytes32",
          "name": "_resourceID",
          "type": "bytes32"
        }
      ],
      "name": "initialize",
      "outputs": [],
      "stateMutability": "nonpayable",
      "type": "function"
    },
    {
      "inputs": [
        {
          "internalType": "bytes32",
          "name": "role",
          "type": "bytes32"
        },
        {
          "internalType": "address",
          "name": "account",
          "type": "address"
        }
      ],
      "name": "renounceRole",
      "outputs": [],
      "stateMutability": "nonpayable",
      "type": "function"
    },
    {
      "inputs": [
        {
          "internalType": "uint8",
          "name": "_destChainID",
          "type": "uint8"
        },
        {
          "internalType": "uint64",
          "name": "_depositNonce",
          "type": "uint64"
        },
        {
          "internalType": "uint256",
          "name": "_gasLimit",
          "type": "uint256"
        },
        {
          "internalType": "uint256",
          "name": "_gasPrice",
          "type": "uint256"
        }
      ],
      "name": "replayGenericDeposit",
      "outputs": [],
      "stateMutability": "nonpayable",
      "type": "function"
    },
    {
      "inputs": [
        {
          "internalType": "bytes32",
          "name": "role",
          "type": "bytes32"
        },
        {
          "internalType": "address",
          "name": "account",
          "type": "address"
        }
      ],
      "name": "revokeRole",
      "outputs": [],
      "stateMutability": "nonpayable",
      "type": "function"
    },
    {
      "inputs": [
        {
          "internalType": "address",
          "name": "_bridge",
          "type": "address"
        }
      ],
      "name": "setBridge",
      "outputs": [],
      "stateMutability": "nonpayable",
      "type": "function"
    },
    {
      "inputs": [
        {
          "internalType": "uint8",
          "name": "_chainID",
          "type": "uint8"
        },
        {
          "internalType": "uint256",
          "name": "_defaultGas",
          "type": "uint256"
        }
      ],
      "name": "setDefaultGas",
      "outputs": [],
      "stateMutability": "nonpayable",
      "type": "function"
    },
    {
      "inputs": [
        {
          "internalType": "uint8",
          "name": "_chainID",
          "type": "uint8"
        },
        {
          "internalType": "uint256",
          "name": "_defaultGasPrice",
          "type": "uint256"
        }
      ],
      "name": "setDefaultGasPrice",
      "outputs": [],
      "stateMutability": "nonpayable",
      "type": "function"
    },
    {
      "inputs": [
        {
          "internalType": "address",
          "name": "_feeManager",
          "type": "address"
        }
      ],
      "name": "setFeeManager",
      "outputs": [],
      "stateMutability": "nonpayable",
      "type": "function"
    },
    {
      "inputs": [
        {
          "internalType": "uint8",
          "name": "destinationChainID",
          "type": "uint8"
        },
        {
          "internalType": "address",
          "name": "feeTokenAddress",
          "type": "address"
        },
        {
          "internalType": "uint256",
          "name": "feeFactor",
          "type": "uint256"
        },
        {
          "internalType": "uint256",
          "name": "bridgeFee",
          "type": "uint256"
        },
        {
          "internalType": "bool",
          "name": "accepted",
          "type": "bool"
        }
      ],
      "name": "setFees",
      "outputs": [],
      "stateMutability": "nonpayable",
      "type": "function"
    },
    {
      "inputs": [
        {
          "internalType": "bytes4",
          "name": "interfaceId",
          "type": "bytes4"
        }
      ],
      "name": "supportsInterface",
      "outputs": [
        {
          "internalType": "bool",
          "name": "",
          "type": "bool"
        }
      ],
      "stateMutability": "view",
      "type": "function"
    },
    {
      "inputs": [
        {
          "internalType": "address",
          "name": "tokenAddress",
          "type": "address"
        },
        {
          "internalType": "address",
          "name": "recipient",
          "type": "address"
        },
        {
          "internalType": "uint256",
          "name": "amount",
          "type": "uint256"
        }
      ],
      "name": "withdrawFees",
      "outputs": [],
      "stateMutability": "nonpayable",
      "type": "function"
    }
  ],
  "bytecode": "0x608060405234801561001057600080fd5b5061344a806100206000396000f3fe608060405234801561001057600080fd5b50600436106101955760003560e01c806391d14854116100ef578063def0860311610092578063def08603146104cb578063e55dc4e6146104de578063e78cea92146104f1578063e8a9f66d14610504578063e934768314610517578063f39d36531461052c578063f8d9a8131461053f578063fa7a14f41461055257610195565b806391d14854146104285780639c40ca281461043b578063a217fddf1461044e578063a93ea0ec14610456578063b2c0f64014610476578063b5bfddea14610490578063be13f47c146104a5578063d547741f146104b857610195565b806301ffc9a71461019a5780630d401983146101c25780631fee1af0146101d757806324757157146101f7578063248a9ca31461020a5780632f2ff15d1461023b57806330faa2591461024e578063331429971461026157806336568abe146102695780633d2440e21461027c578063472d35b91461029f57806377f073a6146102b25780637814ec50146102d75780638470f72f146102fa5780638dd1480214610415575b600080fd5b6101ad6101a8366004612a56565b610565565b60405190151581526020015b60405180910390f35b6101d56101d0366004612c6b565b61059e565b005b6101ea6101e5366004612c88565b6105c2565b6040516101b991906130f9565b6101d5610205366004612aaf565b6106c0565b61022d610218366004612a0f565b60009081526065602052604090206001015490565b6040519081526020016101b9565b6101d5610249366004612a27565b610850565b6101ad61025c366004612a70565b61087b565b60995461022d565b6101d5610277366004612a27565b610b63565b61022d61028a366004612b05565b60ff166000908152609c602052604090205490565b6101d56102ad366004612950565b610be1565b6098546001600160a01b03165b6040516001600160a01b0390911681526020016101b9565b61022d6102e5366004612b05565b60ff166000908152609d602052604090205490565b6103b9610308366004612c88565b6040805160c081018252600080825260208201819052918101829052606081018290526080810182905260a08101919091525060ff9182166000908152609e602090815260408083206001600160401b039485168452825291829020825160c08101845281549586168152610100860490941691840191909152600160481b9093046001600160a01b031690820152600182015460608201526002820154608082015260039091015460a082015290565b6040516101b99190815160ff1681526020808301516001600160401b0316908201526040808301516001600160a01b031690820152606080830151908201526080808301519082015260a0918201519181019190915260c00190565b6101d5610423366004612950565b610c10565b6101ad610436366004612a27565b610c3f565b6101d5610449366004612be0565b610c6a565b61022d600081565b610469610464366004612c88565b610e5c565b6040516101b99190613022565b61047e610fca565b60405160ff90911681526020016101b9565b61022d60008051602061341e83398151915281565b6101d56104b33660046129c8565b61104c565b6101d56104c6366004612a27565b6110d2565b6101d56104d9366004612c6b565b6110f8565b6101d56104ec366004612988565b61111b565b6097546102bf906001600160a01b031681565b61022d610512366004612b3d565b611193565b61022d6000805160206133fe83398151915281565b6101d561053a366004612b82565b611471565b6101d561054d366004612dba565b611510565b6101d5610560366004612aaf565b6118c3565b60006001600160e01b03198216637965db0b60e01b148061059657506301ffc9a760e01b6001600160e01b03198316145b90505b919050565b60006105ab81335b611a13565b5060ff9091166000908152609d6020526040902055565b60408051606080820183526000808352602080840182905283850183905260ff8781168352609b82528583206001600160401b038816845282529185902085519384018652805480841615158552610100900490921615159083015260018101805493949293919284019161063690613352565b80601f016020809104026020016040519081016040528092919081815260200182805461066290613352565b80156106af5780601f10610684576101008083540402835291602001916106af565b820191906000526020600020905b81548152906001019060200180831161069257829003601f168201915b505050505081525050905092915050565b60006106cf6020830183612950565b9050806001600160a01b031663c9adbf826040518163ffffffff1660e01b815260040160206040518083038186803b15801561070a57600080fd5b505afa15801561071e573d6000803e3d6000fd5b505050506040513d601f19601f82011682018060405250810190610742919061296c565b6001600160a01b0316336001600160a01b0316146107ca5760405162461bcd60e51b815260206004820152603a60248201527f526f757465722047656e6572696368616e646c6572203a204f6e6c79204c696e6044820152796b205365747465722063616e206d617020636f6e74726163747360301b60648201526084015b60405180910390fd5b6001600160a01b038116633e27323d61e1ba6107ec6040860160208701612b05565b6107fc6060870160408801612950565b6040518463ffffffff1660e01b815260040161081992919061312c565b600060405180830381600088803b15801561083357600080fd5b5087f1158015610847573d6000803e3d6000fd5b50505050505050565b60008281526065602052604090206001015461086c81336105a6565b6108768383611a77565b505050565b600060008051602061341e83398151915261089681336105a6565b60006108a28585611afd565b60208082015160ff9081166000908152609b8352604080822060608601516001600160401b03168352909352919091205491925016156109245760405162461bcd60e51b815260206004820181905260248201527f47656e6572696348616e646c65723a20416c726561647920657865637574656460448201526064016107c1565b60a08101516001600160a01b03163b6109eb5760408051602080820180845260008084528583015160ff168152609b835284812060608701516001600160401b03168252909252929020905161098092600190920191906127fe565b506020808201805160ff9081166000908152609b8085526040808320606090970180516001600160401b039081168552978752818420805461ff00191690559451909316825284528181209251909416845291529020805460ff191660019081179091559150610b5c565b6000808260a001516001600160a01b03166306d07c59846020015185608001518660e00151604051602401610a2293929190613148565b6040516020818303038152906040529060e01b6020820180516001600160e01b038381831617835250505050604051610a5b9190612e23565b6000604051808303816000865af19150503d8060008114610a98576040519150601f19603f3d011682016040523d82523d6000602084013e610a9d565b606091505b5060208086015160ff166000908152609b8252604080822060608901516001600160401b03168352835290208251939550919350610ae492600190920191908401906127fe565b50506020808301805160ff9081166000908152609b8085526040808320606090980180516001600160401b03908116855298875281842080549815156101000261ff00199099169890981790975593519092168152908352818120935190941684529190529020805460ff1916600190811790915591505b5092915050565b6001600160a01b0381163314610bd35760405162461bcd60e51b815260206004820152602f60248201527f416363657373436f6e74726f6c3a2063616e206f6e6c792072656e6f756e636560448201526e103937b632b9903337b91039b2b63360891b60648201526084016107c1565b610bdd8282611b60565b5050565b6000610bed81336105a6565b50609880546001600160a01b0319166001600160a01b0392909216919091179055565b6000610c1c81336105a6565b50609780546001600160a01b0319166001600160a01b0392909216919091179055565b60009182526065602090815260408084206001600160a01b0393909316845291905290205460ff1690565b60ff87166000908152609c6020526040902054610c995760405162461bcd60e51b81526004016107c190612fd3565b60ff87166000908152609d6020526040902054610cc85760405162461bcd60e51b81526004016107c190612ee5565b60975460995460405163700803b560e01b815260ff8a16600482015260248101919091526000916001600160a01b03169063700803b590604401602060405180830381600087803b158015610d1c57600080fd5b505af1158015610d30573d6000803e3d6000fd5b505050506040513d601f19601f82011682018060405250810190610d549190612ae9565b604051630500387f60e01b815260ff8a16600482015290915033906000908290630500387f9060240160206040518083038186803b158015610d9557600080fd5b505afa158015610da9573d6000803e3d6000fd5b505050506040513d601f19601f82011682018060405250810190610dcd919061296c565b60ff8b166000908152609c6020526040812054919250908710610df05786610e04565b60ff8b166000908152609c60205260409020545b60ff8c166000908152609d6020526040812054919250908710610e275786610e3b565b60ff8c166000908152609d60205260409020545b9050610e4e858d8d8d8d87878d8b611bc7565b505050505050505050505050565b610e64612882565b60ff8381166000908152609a602090815260408083206001600160401b03878116855290835292819020815161016081018352815481526001820154808716948201949094526101008404909516918501919091526201000082049092166060840152600160501b90046001600160a01b039081166080840152600282015490811660a0840152600160a01b900460e090811b6001600160e01b03191660c084015260038201805491840191610f1990613352565b80601f0160208091040260200160405190810160405280929190818152602001828054610f4590613352565b8015610f925780601f10610f6757610100808354040283529160200191610f92565b820191906000526020600020905b815481529060010190602001808311610f7557829003601f168201915b505050918352505060048201546020820152600582015460408201526006909101546001600160a01b03166060909101529392505050565b609754604080516302cb03d960e61b815290516000926001600160a01b03169163b2c0f640916004808301926020929190829003018186803b15801561100f57600080fd5b505afa158015611023573d6000803e3d6000fd5b505050506040513d601f19601f820116820180604052508101906110479190612b21565b905090565b600054610100900460ff166110675760005460ff161561106b565b303b155b6110875760405162461bcd60e51b81526004016107c190612f3a565b600054610100900460ff161580156110b2576000805460ff1961ff0019909116610100171660011790555b6110bc838361200d565b8015610876576000805461ff0019169055505050565b6000828152606560205260409020600101546110ee81336105a6565b6108768383611b60565b600061110481336105a6565b5060ff9091166000908152609c6020526040902055565b600061112781336105a6565b609854604051631095b6d760e01b81526001600160a01b0390911690631095b6d79061115b90879087908790600401612eae565b600060405180830381600087803b15801561117557600080fd5b505af1158015611189573d6000803e3d6000fd5b5050505050505050565b60ff84166000908152609c60205260408120546112035760405162461bcd60e51b815260206004820152602860248201527f47656e6572696348616e646c6572203a2044657374696e6174696f6e2047617360448201526708139bdd0814d95d60c21b60648201526084016107c1565b60ff85166000908152609d60205260409020546112795760405162461bcd60e51b815260206004820152602e60248201527f47656e6572696348616e646c6572203a2044657374696e6174696f6e2047617360448201526d08141c9a58d948139bdd0814d95d60921b60648201526084016107c1565b6000846001600160a01b031663313ce5676040518163ffffffff1660e01b815260040160206040518083038186803b1580156112b457600080fd5b505afa1580156112c8573d6000803e3d6000fd5b505050506040513d601f19601f820116820180604052508101906112ec9190612b21565b60ff87166000908152609c602052604081205491925090851061130f5784611323565b60ff87166000908152609c60205260409020545b60ff88166000908152609d6020526040812054919250908510611346578461135a565b60ff88166000908152609d60205260409020545b609854604051631eeb344360e21b815291925060009182916001600160a01b031690637bacd10c90611392908d908d9060040161312c565b604080518083038186803b1580156113a957600080fd5b505afa1580156113bd573d6000803e3d6000fd5b505050506040513d601f19601f820116820180604052508101906113e19190612ac6565b9150915060128560ff1610156114415760006113fe8660126132ec565b905061140b81600a6131fc565b8561141686866132cd565b61142091906132cd565b61142a9190613196565b611434908361317e565b9650505050505050611469565b808361144d86856132cd565b61145791906132cd565b611461919061317e565b955050505050505b949350505050565b6000805160206133fe83398151915261148a81336105a6565b609854604051630fa857f560e31b815260ff881660048201526001600160a01b0387811660248301526044820187905260648201869052841515608483015290911690637d42bfa89060a401600060405180830381600087803b1580156114f057600080fd5b505af1158015611504573d6000803e3d6000fd5b50505050505050505050565b60ff84166000908152609c602052604090205461153f5760405162461bcd60e51b81526004016107c190612fd3565b60ff84166000908152609d602052604090205461156e5760405162461bcd60e51b81526004016107c190612ee5565b60ff8481166000908152609a602090815260408083206001600160401b03888116855290835281842082516101608101845281548152600182015480881695820195909552610100850490961692860192909252620100008304166060850152600160501b9091046001600160a01b039081166080850152600282015490811660a0850152600160a01b900460e090811b6001600160e01b03191660c08501526003820180549394939184019161162490613352565b80601f016020809104026020016040519081016040528092919081815260200182805461165090613352565b801561169d5780601f106116725761010080835404028352916020019161169d565b820191906000526020600020905b81548152906001019060200180831161168057829003601f168201915b505050918352505060048201546020820152600582015460408201526006909101546001600160a01b03908116606090920191909152610140820151919250166117295760405162461bcd60e51b815260206004820181905260248201527f47656e6572696348616e646c65723a205265636f7264206e6f7420666f756e6460448201526064016107c1565b60808101516001600160a01b031633146117965760405162461bcd60e51b815260206004820152602860248201527f47656e6572696348616e646c65723a20556e617574686f72697a6564207472616044820152673739b0b1ba34b7b760c11b60648201526084016107c1565b60ff85166000908152609c602052604081205484106117b557836117c9565b60ff86166000908152609c60205260409020545b60ff87166000908152609d60205260408120549192509084106117ec5783611800565b60ff87166000908152609d60205260409020545b9050600061181788856101400151858560016120ec565b60ff89166000908152609e602090815260408083206001600160401b038c168452909152812060018101869055600281018590556003018054929350839290919061186390849061317e565b9250508190555083606001516001600160401b03166099548960ff167f4cb34085ad0b79b34fac782e5e60b511097f76f0f2f00b77bdfc07f34cb9c97460006040516118b191815260200190565b60405180910390a45050505050505050565b60006118d26020830183612950565b9050806001600160a01b031663c9adbf826040518163ffffffff1660e01b815260040160206040518083038186803b15801561190d57600080fd5b505afa158015611921573d6000803e3d6000fd5b505050506040513d601f19601f82011682018060405250810190611945919061296c565b6001600160a01b0316336001600160a01b0316146119cb5760405162461bcd60e51b815260206004820152603c60248201527f526f757465722047656e6572696368616e646c6572203a204f6e6c79204c696e60448201527f6b205365747465722063616e20756e6d617020636f6e7472616374730000000060648201526084016107c1565b6001600160a01b03811663fe9dc81a6188db6119ed6040860160208701612b05565b6040516001600160e01b031960e085901b16815260ff9091166004820152602401610819565b611a1d8282610c3f565b610bdd57611a35816001600160a01b03166014612369565b611a40836020612369565b604051602001611a51929190612e3f565b60408051601f198184030181529082905262461bcd60e51b82526107c191600401612ed2565b611a818282610c3f565b610bdd5760008281526065602090815260408083206001600160a01b03851684529091529020805460ff19166001179055611ab93390565b6001600160a01b0316816001600160a01b0316837f2f8788117e7eff1d82e926ec794901d17c78024a50270940304540a733656f0d60405160405180910390a45050565b611b05612882565b611b0d612882565b611b1983850185612cb5565b60e08701526001600160e01b03191660c08601526001600160a01b0390811660a08601521660808401526001600160401b0316606083015260ff1660208201529392505050565b611b6a8282610c3f565b15610bdd5760008281526065602090815260408083206001600160a01b0385168085529252808320805460ff1916905551339285917ff6391f5c32d9c69d2a47ea670b442974b53935d1edc7fd64eb21e047a839171b9190a45050565b6000611bd78984878760006120ec565b6040805160ff8c1660208201526001600160401b038d169181019190915290915060009060600160408051601f19818403018152828252805160209182012061016084018352609954845260975483516302cb03d960e61b81529351919550848301936001600160a01b039091169263b2c0f64092600480840193829003018186803b158015611c6657600080fd5b505afa158015611c7a573d6000803e3d6000fd5b505050506040513d601f19601f82011682018060405250810190611c9e9190612b21565b60ff1681526020018b60ff1681526020018c6001600160401b03168152602001336001600160a01b03168152602001846001600160a01b031681526020018a6001600160e01b031916815260200189898080601f016020809104026020016040519081016040528093929190818152602001838380828437600081840152601f19601f820116905080830192505050505050508152602001828152602001878152602001856001600160a01b0316815250609a60008c60ff1660ff16815260200190815260200160002060008d6001600160401b03166001600160401b031681526020019081526020016000206000820151816000015560208201518160010160006101000a81548160ff021916908360ff16021790555060408201518160010160016101000a81548160ff021916908360ff16021790555060608201518160010160026101000a8154816001600160401b0302191690836001600160401b03160217905550608082015181600101600a6101000a8154816001600160a01b0302191690836001600160a01b0316021790555060a08201518160020160006101000a8154816001600160a01b0302191690836001600160a01b0316021790555060c08201518160020160146101000a81548163ffffffff021916908360e01c021790555060e0820151816003019080519060200190611e9e9291906127fe565b50610100820151816004015561012082015181600501556101408201518160060160006101000a8154816001600160a01b0302191690836001600160a01b031602179055509050506040518060c001604052808b60ff1681526020018c6001600160401b03168152602001856001600160a01b0316815260200187815260200186815260200183815250609e60008c60ff1660ff16815260200190815260200160002060008d6001600160401b03166001600160401b0316815260200190815260200160002060008201518160000160006101000a81548160ff021916908360ff16021790555060208201518160000160016101000a8154816001600160401b0302191690836001600160401b0316021790555060408201518160000160096101000a8154816001600160a01b0302191690836001600160a01b03160217905550606082015181600101556080820151816002015560a082015181600301559050505050505050505050505050565b600054610100900460ff166120285760005460ff161561202c565b303b155b6120485760405162461bcd60e51b81526004016107c190612f3a565b600054610100900460ff16158015612073576000805460ff1961ff0019909116610100171660011790555b61207b612551565b612086600033612592565b61209e60008051602061341e83398151915284612592565b6120b66000805160206133fe83398151915233612592565b609780546001600160a01b0319166001600160a01b03851617905560998290558015610876576000805461ff0019169055505050565b60ff85166000908152609c602052604081205461211b5760405162461bcd60e51b81526004016107c190612fd3565b60ff86166000908152609d602052604090205461214a5760405162461bcd60e51b81526004016107c190612ee5565b6000856001600160a01b031663313ce5676040518163ffffffff1660e01b815260040160206040518083038186803b15801561218557600080fd5b505afa158015612199573d6000803e3d6000fd5b505050506040513d601f19601f820116820180604052508101906121bd9190612b21565b60ff88166000908152609c60205260408120549192509086106121e057856121f4565b60ff88166000908152609c60205260409020545b60ff89166000908152609d6020526040812054919250908610612217578561222b565b60ff89166000908152609d60205260409020545b609854604051631eeb344360e21b815291925060009182916001600160a01b031690637bacd10c90612263908e908e9060040161312c565b604080518083038186803b15801561227a57600080fd5b505afa15801561228e573d6000803e3d6000fd5b505050506040513d601f19601f820116820180604052508101906122b29190612ac6565b9150915086156122c0575060005b896000601260ff8816101561231a5760006122dc8860126132ec565b90506122e981600a6131fc565b876122f488886132cd565b6122fe91906132cd565b6123089190613196565b612312908561317e565b91505061233d565b828561232688876132cd565b61233091906132cd565b61233a919061317e565b90505b609854612359906001600160a01b03848116913391168461259c565b9c9b505050505050505050505050565b606060006123788360026132cd565b61238390600261317e565b6001600160401b038111156123a857634e487b7160e01b600052604160045260246000fd5b6040519080825280601f01601f1916602001820160405280156123d2576020820181803683370190505b509050600360fc1b816000815181106123fb57634e487b7160e01b600052603260045260246000fd5b60200101906001600160f81b031916908160001a905350600f60fb1b8160018151811061243857634e487b7160e01b600052603260045260246000fd5b60200101906001600160f81b031916908160001a905350600061245c8460026132cd565b61246790600161317e565b90505b60018111156124fb576f181899199a1a9b1b9c1cb0b131b232b360811b85600f16601081106124a957634e487b7160e01b600052603260045260246000fd5b1a60f81b8282815181106124cd57634e487b7160e01b600052603260045260246000fd5b60200101906001600160f81b031916908160001a90535060049490941c936124f48161333b565b905061246a565b50831561254a5760405162461bcd60e51b815260206004820181905260248201527f537472696e67733a20686578206c656e67746820696e73756666696369656e7460448201526064016107c1565b9392505050565b600054610100900460ff166125785760405162461bcd60e51b81526004016107c190612f88565b6125806125fa565b6125886125fa565b6125906125fa565b565b610bdd8282611a77565b6125f4846323b872dd60e01b8585856040516024016125bd93929190612eae565b60408051601f198184030181529190526020810180516001600160e01b03166001600160e01b031990931692909217909152612621565b50505050565b600054610100900460ff166125905760405162461bcd60e51b81526004016107c190612f88565b6000612676826040518060400160405280602081526020017f5361666545524332303a206c6f772d6c6576656c2063616c6c206661696c6564815250856001600160a01b03166126f39092919063ffffffff16565b805190915015610876578080602001905181019061269491906129f3565b6108765760405162461bcd60e51b815260206004820152602a60248201527f5361666545524332303a204552433230206f7065726174696f6e20646964206e6044820152691bdd081cdd58d8d9595960b21b60648201526084016107c1565b6060611469848460008585843b61274c5760405162461bcd60e51b815260206004820152601d60248201527f416464726573733a2063616c6c20746f206e6f6e2d636f6e747261637400000060448201526064016107c1565b600080866001600160a01b031685876040516127689190612e23565b60006040518083038185875af1925050503d80600081146127a5576040519150601f19603f3d011682016040523d82523d6000602084013e6127aa565b606091505b50915091506127ba8282866127c5565b979650505050505050565b606083156127d457508161254a565b8251156127e45782518084602001fd5b8160405162461bcd60e51b81526004016107c19190612ed2565b82805461280a90613352565b90600052602060002090601f01602090048101928261282c5760008555612872565b82601f1061284557805160ff1916838001178555612872565b82800160010185558215612872579182015b82811115612872578251825591602001919060010190612857565b5061287e9291506128dd565b5090565b604080516101608101825260008082526020820181905291810182905260608082018390526080820183905260a0820183905260c0820183905260e08201526101008101829052610120810182905261014081019190915290565b5b8082111561287e57600081556001016128de565b80356001600160e01b03198116811461059957600080fd5b60008083601f84011261291b578182fd5b5081356001600160401b03811115612931578182fd5b60208301915083602082850101111561294957600080fd5b9250929050565b600060208284031215612961578081fd5b813561254a816133b3565b60006020828403121561297d578081fd5b815161254a816133b3565b60008060006060848603121561299c578182fd5b83356129a7816133b3565b925060208401356129b7816133b3565b929592945050506040919091013590565b600080604083850312156129da578182fd5b82356129e5816133b3565b946020939093013593505050565b600060208284031215612a04578081fd5b815161254a816133cb565b600060208284031215612a20578081fd5b5035919050565b60008060408385031215612a39578182fd5b823591506020830135612a4b816133b3565b809150509250929050565b600060208284031215612a67578081fd5b61254a826128f2565b60008060208385031215612a82578182fd5b82356001600160401b03811115612a97578283fd5b612aa38582860161290a565b90969095509350505050565b600060608284031215612ac0578081fd5b50919050565b60008060408385031215612ad8578182fd5b505080516020909101519092909150565b600060208284031215612afa578081fd5b815161254a816133d9565b600060208284031215612b16578081fd5b813561254a816133ee565b600060208284031215612b32578081fd5b815161254a816133ee565b60008060008060808587031215612b52578182fd5b8435612b5d816133ee565b93506020850135612b6d816133b3565b93969395505050506040820135916060013590565b600080600080600060a08688031215612b99578283fd5b8535612ba4816133ee565b94506020860135612bb4816133b3565b935060408601359250606086013591506080860135612bd2816133cb565b809150509295509295909350565b600080600080600080600060c0888a031215612bfa578485fd5b8735612c05816133ee565b9650612c13602089016128f2565b955060408801356001600160401b03811115612c2d578586fd5b612c398a828b0161290a565b909650945050606088013592506080880135915060a0880135612c5b816133b3565b8091505092959891949750929550565b60008060408385031215612c7d578182fd5b82356129e5816133ee565b60008060408385031215612c9a578182fd5b8235612ca5816133ee565b91506020830135612a4b816133d9565b60008060008060008060c08789031215612ccd578384fd5b8635612cd8816133ee565b95506020870135612ce8816133d9565b94506040870135612cf8816133b3565b93506060870135612d08816133b3565b9250612d16608088016128f2565b915060a08701356001600160401b0380821115612d31578283fd5b818901915089601f830112612d44578283fd5b813581811115612d5657612d5661339d565b604051601f8201601f19908116603f01168101908382118183101715612d7e57612d7e61339d565b816040528281528c6020848701011115612d96578586fd5b82602086016020830137856020848301015280955050505050509295509295509295565b60008060008060808587031215612dcf578182fd5b8435612dda816133ee565b93506020850135612b6d816133d9565b6001600160a01b03169052565b60008151808452612e0f81602086016020860161330f565b601f01601f19169290920160200192915050565b60008251612e3581846020870161330f565b9190910192915050565b600076020b1b1b2b9b9a1b7b73a3937b61d1030b1b1b7bab73a1604d1b82528351612e7181601785016020880161330f565b7001034b99036b4b9b9b4b733903937b6329607d1b6017918401918201528351612ea281602884016020880161330f565b01602801949350505050565b6001600160a01b039384168152919092166020820152604081019190915260600190565b60006020825261254a6020830184612df7565b60208082526035908201527f526f757465722047656e6572696368616e646c6572203a2044657374696e61746040820152741a5bdb8811d85cc8141c9a58d948139bdd0814d95d605a1b606082015260800190565b6020808252602e908201527f496e697469616c697a61626c653a20636f6e747261637420697320616c72656160408201526d191e481a5b9a5d1a585b1a5e995960921b606082015260800190565b6020808252602b908201527f496e697469616c697a61626c653a20636f6e7472616374206973206e6f74206960408201526a6e697469616c697a696e6760a81b606082015260800190565b6020808252602f908201527f526f757465722047656e6572696368616e646c6572203a2044657374696e617460408201526e1a5bdb8811d85cc8139bdd0814d95d608a1b606082015260800190565b600060208252825160208301526020830151613043604084018260ff169052565b50604083015160ff811660608401525060608301516001600160401b038116608084015250608083015161307a60a0840182612dea565b5060a083015161308d60c0840182612dea565b5060c08301516001600160e01b0319811660e08401525060e083015161016061010081818601526130c2610180860184612df7565b9086015161012086810191909152860151610140808701919091528601519092506130ef82860182612dea565b5090949350505050565b60006020825282511515602083015260208301511515604083015260408301516060808401526114696080840182612df7565b60ff9290921682526001600160a01b0316602082015260400190565b60ff841681526001600160a01b038316602082015260606040820181905260009061317590830184612df7565b95945050505050565b6000821982111561319157613191613387565b500190565b6000826131b157634e487b7160e01b81526012600452602481fd5b500490565b80825b60018086116131c857506131f3565b8187048211156131da576131da613387565b808616156131e757918102915b9490941c9380026131b9565b94509492505050565b600061254a60001960ff8516846000826132185750600161254a565b816132255750600061254a565b816001811461323b576002811461324557613272565b600191505061254a565b60ff84111561325657613256613387565b6001841b91508482111561326c5761326c613387565b5061254a565b5060208310610133831016604e8410600b84101617156132a5575081810a838111156132a0576132a0613387565b61254a565b6132b284848460016131b6565b8086048211156132c4576132c4613387565b02949350505050565b60008160001904831182151516156132e7576132e7613387565b500290565b600060ff821660ff84168082101561330657613306613387565b90039392505050565b60005b8381101561332a578181015183820152602001613312565b838111156125f45750506000910152565b60008161334a5761334a613387565b506000190190565b60028104600182168061336657607f821691505b60208210811415612ac057634e487b7160e01b600052602260045260246000fd5b634e487b7160e01b600052601160045260246000fd5b634e487b7160e01b600052604160045260246000fd5b6001600160a01b03811681146133c857600080fd5b50565b80151581146133c857600080fd5b6001600160401b03811681146133c857600080fd5b60ff811681146133c857600080fdfee6ad9a47fbda1dc18de1eb5eeb7d935e5e81b4748f3cfc61e233e64f8818206052ba824bfabc2bcfcdf7f0edbb486ebb05e1836c90e78047efeb949990f72e5fa164736f6c6343000802000a",
  "linkReferences": {},
  "deployedLinkReferences": {}
}